{
  "contractName": "ERC808",
  "abi": [
    {
      "constant": true,
      "inputs": [],
      "name": "getListAvailabilities",
      "outputs": [
        {
          "components": [
            {
              "name": "_provider",
              "type": "address"
            },
            {
              "name": "_signatureProof",
              "type": "bytes32"
            },
            {
              "name": "_resourceId",
              "type": "uint256"
            },
            {
              "name": "_type",
              "type": "uint256"
            },
            {
              "name": "_minDeposit",
              "type": "uint256"
            },
            {
              "name": "_commission",
              "type": "uint256"
            },
            {
              "name": "_freeCancelDate",
              "type": "uint256"
            },
            {
              "name": "_startDate",
              "type": "uint256"
            },
            {
              "name": "_endDate",
              "type": "uint256"
            },
            {
              "name": "_bookingStatus",
              "type": "uint8"
            },
            {
              "name": "_metaDataLink",
              "type": "string"
            }
          ],
          "name": "",
          "type": "tuple[]"
        }
      ],
      "payable": false,
      "stateMutability": "view",
      "type": "function"
    },
    {
      "constant": false,
      "inputs": [
        {
          "name": "ressourceID",
          "type": "uint256"
        },
        {
          "name": "ressourceType",
          "type": "uint256"
        },
        {
          "name": "minDeposit",
          "type": "uint256"
        },
        {
          "name": "status",
          "type": "uint8"
        },
        {
          "name": "commission",
          "type": "uint256"
        },
        {
          "name": "freeCancelDate",
          "type": "uint256"
        },
        {
          "name": "startDate",
          "type": "uint256"
        },
        {
          "name": "endDate",
          "type": "uint256"
        },
        {
          "name": "metaDataLink",
          "type": "string"
        }
      ],
      "name": "addAvailabilities",
      "outputs": [],
      "payable": false,
      "stateMutability": "nonpayable",
      "type": "function"
    },
    {
      "constant": true,
      "inputs": [
        {
          "name": "_id",
          "type": "uint256"
        }
      ],
      "name": "getAvailability",
      "outputs": [
        {
          "name": "",
          "type": "uint256"
        },
        {
          "name": "",
          "type": "uint256"
        },
        {
          "name": "",
          "type": "uint256"
        },
        {
          "name": "",
          "type": "uint256"
        },
        {
          "name": "",
          "type": "uint256"
        },
        {
          "name": "",
          "type": "uint256"
        },
        {
          "name": "",
          "type": "uint8"
        }
      ],
      "payable": false,
      "stateMutability": "view",
      "type": "function"
    },
    {
      "constant": true,
      "inputs": [
        {
          "name": "_id",
          "type": "uint256"
        }
      ],
      "name": "getMetadata",
      "outputs": [
        {
          "name": "",
          "type": "string"
        }
      ],
      "payable": false,
      "stateMutability": "view",
      "type": "function"
    }
  ],
  "bytecode": "0x6060604052341561000f57600080fd5b610a6f8061001e6000396000f300606060405260043610610062576000357c0100000000000000000000000000000000000000000000000000000000900463ffffffff168063a574cea414610067578063b24273e314610103578063cd6a8eca146101ab578063dc58260f1461021a575b600080fd5b341561007257600080fd5b610088600480803590602001909190505061027f565b6040518080602001828103825283818151815260200191508051906020019080838360005b838110156100c85780820151818401526020810190506100ad565b50505050905090810190601f1680156100f55780820380516001836020036101000a031916815260200191505b509250505060405180910390f35b341561010e57600080fd5b6101a9600480803590602001909190803590602001909190803590602001909190803560ff1690602001909190803590602001909190803590602001909190803590602001909190803590602001909190803590602001908201803590602001908080601f0160208091040260200160405190810160405280939291908181526020018383808284378201915050505050509190505061033c565b005b34156101b657600080fd5b6101cc600480803590602001909190505061051c565b6040518088815260200187815260200186815260200185815260200184815260200183815260200182600381111561020057fe5b60ff16815260200197505050505050505060405180910390f35b341561022557600080fd5b61022d6105e7565b60405180806020018281038252838181518152602001915080516000925b8184101561026e578284906020019060200201518152602001926001019261024b565b925050509250505060405180910390f35b6102876107cb565b600080838152602001908152602001600020600a018054600181600116156101000203166002900480601f0160208091040260200160405190810160405280929190818152602001828054600181600116156101000203166002900480156103305780601f1061030557610100808354040283529160200191610330565b820191906000526020600020905b81548152906001019060200180831161031357829003601f168201915b50505050509050919050565b60008060008b81526020019081526020016000209050888160030181905550878160040181905550868160090160006101000a81548160ff0219169083600381111561038457fe5b02179055508581600501819055508481600601819055508381600701819055508281600801819055508181600a0190805190602001906103c59291906107df565b5060018080548060010182816103db919061085f565b91600052602060002090600b020160008490919091506000820160009054906101000a900473ffffffffffffffffffffffffffffffffffffffff168160000160006101000a81548173ffffffffffffffffffffffffffffffffffffffff021916908373ffffffffffffffffffffffffffffffffffffffff16021790555060018201548160010190600019169055600282015481600201556003820154816003015560048201548160040155600582015481600501556006820154816006015560078201548160070155600882015481600801556009820160009054906101000a900460ff168160090160006101000a81548160ff021916908360038111156104df57fe5b0217905550600a820181600a01908054600181600116156101000203166002900461050b929190610891565b505050505050505050505050505050565b6000806000806000806000806000898152602001908152602001600020600301546000808a8152602001908152602001600020600401546000808b8152602001908152602001600020600501546000808c8152602001908152602001600020600601546000808d8152602001908152602001600020600701546000808e8152602001908152602001600020600801546000808f815260200190815260200160002060090160009054906101000a900460ff169650965096509650965096509650919395979092949650565b6105ef610918565b6001805480602002602001604051908101604052809291908181526020016000905b828210156107c257838290600052602060002090600b020161016060405190810160405290816000820160009054906101000a900473ffffffffffffffffffffffffffffffffffffffff1673ffffffffffffffffffffffffffffffffffffffff1673ffffffffffffffffffffffffffffffffffffffff168152602001600182015460001916600019168152602001600282015481526020016003820154815260200160048201548152602001600582015481526020016006820154815260200160078201548152602001600882015481526020016009820160009054906101000a900460ff16600381111561070257fe5b600381111561070d57fe5b8152602001600a82018054600181600116156101000203166002900480601f0160208091040260200160405190810160405280929190818152602001828054600181600116156101000203166002900480156107aa5780601f1061077f576101008083540402835291602001916107aa565b820191906000526020600020905b81548152906001019060200180831161078d57829003601f168201915b50505050508152505081526020019060010190610611565b50505050905090565b602060405190810160405280600081525090565b828054600181600116156101000203166002900490600052602060002090601f016020900481019282601f1061082057805160ff191683800117855561084e565b8280016001018555821561084e579182015b8281111561084d578251825591602001919060010190610832565b5b50905061085b919061092c565b5090565b81548183558181151161088c57600b0281600b02836000526020600020918201910161088b9190610951565b5b505050565b828054600181600116156101000203166002900490600052602060002090601f016020900481019282601f106108ca5780548555610907565b8280016001018555821561090757600052602060002091601f016020900482015b828111156109065782548255916001019190600101906108eb565b5b509050610914919061092c565b5090565b602060405190810160405280600081525090565b61094e91905b8082111561094a576000816000905550600101610932565b5090565b90565b6109f891905b808211156109f457600080820160006101000a81549073ffffffffffffffffffffffffffffffffffffffff0219169055600182016000905560028201600090556003820160009055600482016000905560058201600090556006820160009055600782016000905560088201600090556009820160006101000a81549060ff0219169055600a820160006109eb91906109fb565b50600b01610957565b5090565b90565b50805460018160011615610100020316600290046000825580601f10610a215750610a40565b601f016020900490600052602060002090810190610a3f919061092c565b5b505600a165627a7a72305820e467e3cca955bc79002e4cf694ccaa61446648cbfdd716fa8b98c83143406da50029",
  "source": "pragma solidity ^0.4.17;\r\n\r\ncontract ERC808 {\r\n\r\n    enum BookingStatus { REQUESTED, REJECTED, CONFIRMED, CANCELLED }\r\n\r\n    struct Availability {\r\n        address _provider;\r\n        bytes32 _signatureProof;\r\n        uint _resourceId ; // resource id OR bundle id\r\n        uint _type; // Type of Availability\r\n        uint _minDeposit ; // minimum BTU deposit for booking this resource\r\n        uint _commission ; // commission amount paid to booker in BTU\r\n        uint _freeCancelDate; // Limit date for a reservation cancellation\r\n        uint _startDate; //availability start date timestamps\r\n        uint _endDate; //availability end date timestamps\r\n        BookingStatus _bookingStatus ; // reservation status\r\n        string _metaDataLink; // Link to Meta Data of the bookable resource (desc, image links, etc…)\r\n    }\r\n\r\n    struct Provider {\r\n        address _providerAddress;\r\n        mapping(bytes32 => Availability) availabilities;\r\n    }\r\n    \r\n    mapping(uint => Availability) private availability;\r\n    Availability[] availList;\r\n\r\n    mapping(uint => Provider) private provider;\r\n    Provider[] providerList;\r\n\r\n    function getListAvailabilities() view public returns (Availability[]) {\r\n            return availList;\r\n    }\r\n\r\n    function addAvailabilities(uint ressourceID, \r\n                            uint ressourceType, \r\n                            uint minDeposit, \r\n                            BookingStatus status, \r\n                            uint commission,\r\n                            uint freeCancelDate,\r\n                            uint startDate, \r\n                            uint endDate,\r\n                            string metaDataLink) public {\r\n        var avail = availability[ressourceID];\r\n        avail._type = ressourceType;\r\n        avail._minDeposit = minDeposit;\r\n        avail._bookingStatus = status;\r\n        avail._commission = commission;\r\n        avail._freeCancelDate = freeCancelDate;\r\n        avail._startDate = startDate;\r\n        avail._endDate = endDate;\r\n        avail._metaDataLink = metaDataLink;\r\n        availList.push(avail)-1;\r\n    }\r\n\r\n    function getAvailability(uint _id) view public returns (uint, uint, uint, uint, uint, uint, BookingStatus) {\r\n        return (\r\n            availability[_id]._type, \r\n            availability[_id]._minDeposit, \r\n            availability[_id]._commission, \r\n            availability[_id]._freeCancelDate, \r\n            availability[_id]._startDate, \r\n            availability[_id]._endDate, \r\n            availability[_id]._bookingStatus);\r\n    }\r\n\r\n    function getMetadata(uint _id) view public returns (string) {\r\n            return   availability[_id]._metaDataLink;\r\n    }\r\n}\r\n",
  "sourcePath": "/home/cheval_b/Documents/ERC808-RES/contracts/ERC808.sol",
  "compiler": {
    "name": "solc",
    "version": "0.4.19+commit.c4cbbb05.Emscripten.clang"
  },
  "schemaVersion": "1.0.1",
  "updatedAt": "2018-02-22T14:57:29.398Z"
}