{
  "contractName": "ERC808",
  "abi": [
    {
      "constant": true,
      "inputs": [],
      "name": "getListAvailabilities",
      "outputs": [
        {
          "components": [
            {
              "name": "_provider",
              "type": "address"
            },
            {
              "name": "_signatureProof",
              "type": "bytes32"
            },
            {
              "name": "_resourceId",
              "type": "uint256"
            },
            {
              "name": "_type",
              "type": "uint256"
            },
            {
              "name": "_minDeposit",
              "type": "uint256"
            },
            {
              "name": "_commission",
              "type": "uint256"
            },
            {
              "name": "_freeCancelDate",
              "type": "uint256"
            },
            {
              "name": "_startDate",
              "type": "uint256"
            },
            {
              "name": "_endDate",
              "type": "uint256"
            },
            {
              "name": "_bookingStatus",
              "type": "uint8"
            },
            {
              "name": "_metaDataLink",
              "type": "string"
            }
          ],
          "name": "",
          "type": "tuple[]"
        }
      ],
      "payable": false,
      "stateMutability": "view",
      "type": "function"
    },
    {
      "constant": true,
      "inputs": [],
      "name": "displayAvailabilities",
      "outputs": [],
      "payable": false,
      "stateMutability": "view",
      "type": "function"
    },
    {
      "constant": false,
      "inputs": [
        {
          "name": "ressourceID",
          "type": "uint256"
        },
        {
          "name": "ressourceType",
          "type": "uint256"
        },
        {
          "name": "minDeposit",
          "type": "uint256"
        },
        {
          "name": "status",
          "type": "uint8"
        },
        {
          "name": "commission",
          "type": "uint256"
        },
        {
          "name": "freeCancelDate",
          "type": "uint256"
        },
        {
          "name": "startDate",
          "type": "uint256"
        },
        {
          "name": "endDate",
          "type": "uint256"
        },
        {
          "name": "metaDataLink",
          "type": "string"
        }
      ],
      "name": "addAvailabilities",
      "outputs": [],
      "payable": false,
      "stateMutability": "nonpayable",
      "type": "function"
    },
    {
      "constant": false,
      "inputs": [
        {
          "name": "providerAddress",
          "type": "address"
        },
        {
          "name": "name",
          "type": "string"
        }
      ],
      "name": "addProvider",
      "outputs": [],
      "payable": false,
      "stateMutability": "nonpayable",
      "type": "function"
    },
    {
      "constant": true,
      "inputs": [
        {
          "name": "providerAd",
          "type": "address"
        }
      ],
      "name": "getProvider",
      "outputs": [
        {
          "name": "",
          "type": "address"
        },
        {
          "name": "",
          "type": "string"
        }
      ],
      "payable": false,
      "stateMutability": "view",
      "type": "function"
    },
    {
      "constant": true,
      "inputs": [
        {
          "name": "_id",
          "type": "uint256"
        }
      ],
      "name": "getAvailability",
      "outputs": [
        {
          "name": "",
          "type": "uint256"
        },
        {
          "name": "",
          "type": "uint256"
        },
        {
          "name": "",
          "type": "uint256"
        },
        {
          "name": "",
          "type": "uint256"
        },
        {
          "name": "",
          "type": "uint256"
        },
        {
          "name": "",
          "type": "uint256"
        },
        {
          "name": "",
          "type": "uint8"
        }
      ],
      "payable": false,
      "stateMutability": "view",
      "type": "function"
    },
    {
      "constant": true,
      "inputs": [
        {
          "name": "_id",
          "type": "uint256"
        }
      ],
      "name": "getMetadata",
      "outputs": [
        {
          "name": "",
          "type": "string"
        }
      ],
      "payable": false,
      "stateMutability": "view",
      "type": "function"
    }
  ],
  "bytecode": "0x6060604052341561000f57600080fd5b6112e58061001e6000396000f300606060405260043610610083576000357c0100000000000000000000000000000000000000000000000000000000900463ffffffff16806355f21eb714610088578063a574cea41461016d578063b24273e314610209578063b82bc544146102b1578063cd6a8eca146102c6578063dc58260f14610335578063fc0005001461039a575b600080fd5b341561009357600080fd5b6100bf600480803573ffffffffffffffffffffffffffffffffffffffff16906020019091905050610416565b604051808373ffffffffffffffffffffffffffffffffffffffff1673ffffffffffffffffffffffffffffffffffffffff16815260200180602001828103825283818151815260200191508051906020019080838360005b83811015610131578082015181840152602081019050610116565b50505050905090810190601f16801561015e5780820380516001836020036101000a031916815260200191505b50935050505060405180910390f35b341561017857600080fd5b61018e600480803590602001909190505061056a565b6040518080602001828103825283818151815260200191508051906020019080838360005b838110156101ce5780820151818401526020810190506101b3565b50505050905090810190601f1680156101fb5780820380516001836020036101000a031916815260200191505b509250505060405180910390f35b341561021457600080fd5b6102af600480803590602001909190803590602001909190803590602001909190803560ff1690602001909190803590602001909190803590602001909190803590602001909190803590602001909190803590602001908201803590602001908080601f01602080910402602001604051908101604052809392919081815260200183838082843782019150505050505091905050610627565b005b34156102bc57600080fd5b6102c4610859565b005b34156102d157600080fd5b6102e76004808035906020019091905050610a51565b6040518088815260200187815260200186815260200185815260200184815260200183815260200182600381111561031b57fe5b60ff16815260200197505050505050505060405180910390f35b341561034057600080fd5b610348610b1c565b60405180806020018281038252838181518152602001915080516000925b818410156103895782849060200190602002015181526020019260010192610366565b925050509250505060405180910390f35b34156103a557600080fd5b610414600480803573ffffffffffffffffffffffffffffffffffffffff1690602001909190803590602001908201803590602001908080601f01602080910402602001604051908101604052809392919081815260200183838082843782019150505050505091905050610d00565b005b6000610420610f20565b600260008473ffffffffffffffffffffffffffffffffffffffff1673ffffffffffffffffffffffffffffffffffffffff16815260200190815260200160002060000160009054906101000a900473ffffffffffffffffffffffffffffffffffffffff16600260008573ffffffffffffffffffffffffffffffffffffffff1673ffffffffffffffffffffffffffffffffffffffff168152602001908152602001600020600101808054600181600116156101000203166002900480601f01602080910402602001604051908101604052809291908181526020018280546001816001161561010002031660029004801561055a5780601f1061052f5761010080835404028352916020019161055a565b820191906000526020600020905b81548152906001019060200180831161053d57829003601f168201915b5050505050905091509150915091565b610572610f20565b600080838152602001908152602001600020600a018054600181600116156101000203166002900480601f01602080910402602001604051908101604052809291908181526020018280546001816001161561010002031660029004801561061b5780601f106105f05761010080835404028352916020019161061b565b820191906000526020600020905b8154815290600101906020018083116105fe57829003601f168201915b50505050509050919050565b600061063233610e63565b1561084d576000808b81526020019081526020016000209050338160000160006101000a81548173ffffffffffffffffffffffffffffffffffffffff021916908373ffffffffffffffffffffffffffffffffffffffff160217905550888160030181905550878160040181905550868160090160006101000a81548160ff021916908360038111156106c057fe5b02179055508581600501819055508481600601819055508381600701819055508281600801819055508181600a019080519060200190610701929190610f34565b5060018080548060010182816107179190610fb4565b91600052602060002090600b020160008490919091506000820160009054906101000a900473ffffffffffffffffffffffffffffffffffffffff168160000160006101000a81548173ffffffffffffffffffffffffffffffffffffffff021916908373ffffffffffffffffffffffffffffffffffffffff16021790555060018201548160010190600019169055600282015481600201556003820154816003015560048201548160040155600582015481600501556006820154816006015560078201548160070155600882015481600801556009820160009054906101000a900460ff168160090160006101000a81548160ff0219169083600381111561081b57fe5b0217905550600a820181600a019080546001816001161561010002031660029004610847929190610fe6565b50505050505b50505050505050505050565b600061086361106d565b600091505b600180549050821015610a4d5760018281548110151561088457fe5b90600052602060002090600b020161016060405190810160405290816000820160009054906101000a900473ffffffffffffffffffffffffffffffffffffffff1673ffffffffffffffffffffffffffffffffffffffff1673ffffffffffffffffffffffffffffffffffffffff168152602001600182015460001916600019168152602001600282015481526020016003820154815260200160048201548152602001600582015481526020016006820154815260200160078201548152602001600882015481526020016009820160009054906101000a900460ff16600381111561096b57fe5b600381111561097657fe5b8152602001600a82018054600181600116156101000203166002900480601f016020809104026020016040519081016040528092919081815260200182805460018160011615610100020316600290048015610a135780601f106109e857610100808354040283529160200191610a13565b820191906000526020600020905b8154815290600101906020018083116109f657829003601f168201915b5050505050815250509050610a2b8160400151610a51565b50505050505050610a3f816040015161056a565b508180600101925050610868565b5050565b6000806000806000806000806000898152602001908152602001600020600301546000808a8152602001908152602001600020600401546000808b8152602001908152602001600020600501546000808c8152602001908152602001600020600601546000808d8152602001908152602001600020600701546000808e8152602001908152602001600020600801546000808f815260200190815260200160002060090160009054906101000a900460ff169650965096509650965096509650919395979092949650565b610b246110f2565b6001805480602002602001604051908101604052809291908181526020016000905b82821015610cf757838290600052602060002090600b020161016060405190810160405290816000820160009054906101000a900473ffffffffffffffffffffffffffffffffffffffff1673ffffffffffffffffffffffffffffffffffffffff1673ffffffffffffffffffffffffffffffffffffffff168152602001600182015460001916600019168152602001600282015481526020016003820154815260200160048201548152602001600582015481526020016006820154815260200160078201548152602001600882015481526020016009820160009054906101000a900460ff166003811115610c3757fe5b6003811115610c4257fe5b8152602001600a82018054600181600116156101000203166002900480601f016020809104026020016040519081016040528092919081815260200182805460018160011615610100020316600290048015610cdf5780601f10610cb457610100808354040283529160200191610cdf565b820191906000526020600020905b815481529060010190602001808311610cc257829003601f168201915b50505050508152505081526020019060010190610b46565b50505050905090565b6000600260008473ffffffffffffffffffffffffffffffffffffffff1673ffffffffffffffffffffffffffffffffffffffff1681526020019081526020016000209050828160000160006101000a81548173ffffffffffffffffffffffffffffffffffffffff021916908373ffffffffffffffffffffffffffffffffffffffff16021790555081816001019080519060200190610d9e929190610f34565b50600160038054806001018281610db59190611106565b916000526020600020906003020160008490919091506000820160009054906101000a900473ffffffffffffffffffffffffffffffffffffffff168160000160006101000a81548173ffffffffffffffffffffffffffffffffffffffff021916908373ffffffffffffffffffffffffffffffffffffffff16021790555060018201816001019080546001816001161561010002031660029004610e59929190610fe6565b5050505050505050565b60008060006003805490501415610e7d5760009150610f1a565b600090505b600380549050811015610f19578273ffffffffffffffffffffffffffffffffffffffff16600382815481101515610eb557fe5b906000526020600020906003020160000160009054906101000a900473ffffffffffffffffffffffffffffffffffffffff1673ffffffffffffffffffffffffffffffffffffffff161415610f0c5760019150610f1a565b8080600101915050610e82565b5b50919050565b602060405190810160405280600081525090565b828054600181600116156101000203166002900490600052602060002090601f016020900481019282601f10610f7557805160ff1916838001178555610fa3565b82800160010185558215610fa3579182015b82811115610fa2578251825591602001919060010190610f87565b5b509050610fb09190611138565b5090565b815481835581811511610fe157600b0281600b028360005260206000209182019101610fe0919061115d565b5b505050565b828054600181600116156101000203166002900490600052602060002090601f016020900481019282601f1061101f578054855561105c565b8280016001018555821561105c57600052602060002091601f016020900482015b8281111561105b578254825591600101919060010190611040565b5b5090506110699190611138565b5090565b61016060405190810160405280600073ffffffffffffffffffffffffffffffffffffffff1681526020016000801916815260200160008152602001600081526020016000815260200160008152602001600081526020016000815260200160008152602001600060038111156110df57fe5b81526020016110ec611207565b81525090565b602060405190810160405280600081525090565b81548183558181151161113357600302816003028360005260206000209182019101611132919061121b565b5b505050565b61115a91905b8082111561115657600081600090555060010161113e565b5090565b90565b61120491905b8082111561120057600080820160006101000a81549073ffffffffffffffffffffffffffffffffffffffff0219169055600182016000905560028201600090556003820160009055600482016000905560058201600090556006820160009055600782016000905560088201600090556009820160006101000a81549060ff0219169055600a820160006111f79190611271565b50600b01611163565b5090565b90565b602060405190810160405280600081525090565b61126e91905b8082111561126a57600080820160006101000a81549073ffffffffffffffffffffffffffffffffffffffff02191690556001820160006112619190611271565b50600301611221565b5090565b90565b50805460018160011615610100020316600290046000825580601f1061129757506112b6565b601f0160209004906000526020600020908101906112b59190611138565b5b505600a165627a7a723058209ba728bc1bd13abc34f679ff3079368a43c8b6eddcc7c33eb81bbf64354897240029",
  "source": "    pragma solidity ^0.4.17;\r\n\r\n    contract ERC808 {\r\n\r\n    enum BookingStatus { REQUESTED, REJECTED, CONFIRMED, CANCELLED }\r\n\r\n    struct Availability {\r\n        address _provider;\r\n        bytes32 _signatureProof;\r\n        uint _resourceId ; // resource id OR bundle id\r\n        uint _type; // Type of Availability\r\n        uint _minDeposit ; // minimum BTU deposit for booking this resource\r\n        uint _commission ; // commission amount paid to booker in BTU\r\n        uint _freeCancelDate; // Limit date for a reservation cancellation\r\n        uint _startDate; //availability start date timestamps\r\n        uint _endDate; //availability end date timestamps\r\n        BookingStatus _bookingStatus ; // reservation status\r\n        string _metaDataLink; // Link to Meta Data of the bookable resource (desc, image links, etc…)\r\n    }\r\n\r\n    struct Provider {\r\n        address _providerAddress;\r\n        string _name;\r\n        mapping(bytes32 => Availability) availabilities;\r\n    }\r\n    \r\n    mapping(uint => Availability) private availability;\r\n    Availability[] availList;\r\n\r\n    mapping(address => Provider) private provider;\r\n    Provider[] providerList;\r\n\r\n    function getListAvailabilities() constant public returns (Availability[]) {\r\n            return availList;\r\n    }\r\n\r\n    function displayAvailabilities() view public {\r\n        for (uint i = 0; i < availList.length; i++) {\r\n            Availability memory av = availList[i];\r\n            getAvailability(av._resourceId);\r\n            getMetadata(av._resourceId);\r\n        }\r\n    }\r\n\r\n    function isProvider(address providerAddress)\r\n        private \r\n        constant\r\n        returns(bool isIndeed) \r\n        {\r\n            if (providerList.length == 0) \r\n                return false;\r\n            for (uint i = 0; i < providerList.length; i++) {\r\n                if (providerList[i]._providerAddress == providerAddress) {\r\n                    return true;\r\n                }\r\n            }\r\n    }\r\n\r\n    function addAvailabilities(\r\n                            uint ressourceID, \r\n                            uint ressourceType, \r\n                            uint minDeposit, \r\n                            BookingStatus status, \r\n                            uint commission,\r\n                            uint freeCancelDate,\r\n                            uint startDate, \r\n                            uint endDate,\r\n                            string metaDataLink) public {\r\n            if (isProvider(msg.sender)) {\r\n                    var avail = availability[ressourceID];\r\n                    avail._provider = msg.sender;\r\n                    avail._type = ressourceType;\r\n                    avail._minDeposit = minDeposit;\r\n                    avail._bookingStatus = status;\r\n                    avail._commission = commission;\r\n                    avail._freeCancelDate = freeCancelDate;\r\n                    avail._startDate = startDate;\r\n                    avail._endDate = endDate;\r\n                    avail._metaDataLink = metaDataLink;\r\n                    availList.push(avail)-1;\r\n            }\r\n    }\r\n\r\n    function addProvider(address providerAddress, string name) public {\r\n        var pro = provider[providerAddress];\r\n        pro._providerAddress = providerAddress;\r\n        pro._name = name;\r\n        providerList.push(pro)-1;\r\n    }\r\n\r\n    function getProvider(address providerAd) constant public returns (address, string) {\r\n        return (provider[providerAd]._providerAddress, provider[providerAd]._name);\r\n    }\r\n\r\n    function getAvailability(uint _id) constant public returns (uint, uint, uint, uint, uint, uint, BookingStatus) {\r\n        return (\r\n            availability[_id]._type, \r\n            availability[_id]._minDeposit, \r\n            availability[_id]._commission, \r\n            availability[_id]._freeCancelDate, \r\n            availability[_id]._startDate, \r\n            availability[_id]._endDate, \r\n            availability[_id]._bookingStatus);\r\n    }\r\n\r\n    function getMetadata(uint _id) constant public returns (string) {\r\n            return   availability[_id]._metaDataLink;\r\n    }\r\n\r\n}\r\n",
  "sourcePath": "/home/cheval_b/Documents/ERC808-RES/contracts/ERC808.sol",
  "compiler": {
    "name": "solc",
    "version": "0.4.19+commit.c4cbbb05.Emscripten.clang"
  },
  "schemaVersion": "1.0.1",
  "updatedAt": "2018-02-23T10:09:19.671Z"
}